:100000000C9462000C948A000C948A000C948A0070
:100010000C948A000C948A000C948A000C948A0038
:100020000C948A000C948A000C948A000C9411029F
:100030000C948A000C948A000C948A000C948A0018
:100040000C94C7010C948A000C948A000C948A00CA
:100050000C948A000C948A000C948A000C948A00F8
:100060000C948A000C948A000000000024002700F1
:100070002A000000000023002600290000000000E4
:10008000250028002B0004040404040404040202D4
:100090000202020203030303030301020408102007
:1000A0004080010204081020010204081020000012
:1000B0000008000201000003040700000000000027
:1000C00000000C0411241FBECFEFD8E0DEBFCDBF6F
:1000D00011E0A0E0B1E0EEE3F9E002C005900D927E
:1000E000A030B107D9F721E0A0E0B1E001C01D9236
:1000F000A433B207E1F710E0C2E6D0E004C02197D4
:10010000FE010E949704C136D107C9F70E94D202AE
:100110000C949D040C940000CF92DF92EF92FF921A
:10012000DC01A03282E0B8070CF03EC0B7FD06C08B
:10013000A53BB1052CF0A4EBB0E002C0A0E0B0E01C
:100140008091320128E830E06901C81AD10887FDA2
:10015000D394CC0CDD1CCC0CDD1C0D2C000CEE085B
:10016000FF088091330128E532E0281B310987FD23
:100170003395220F331F220F331FA901330F660B54
:10018000770B9A01AB012C193D094E095F090E94BA
:10019000520424EB30E040E050E00E942804C20EFC
:1001A000D31EE41EF51ED601909131019C3098F5C6
:1001B0008091320148E850E0481B510987FD539572
:1001C000440F551F440F551FA417B5078CF080919D
:1001D000330128E532E0281B310987FD3395220FD2
:1001E000331F220F331FAD012A173B070CF4A9015F
:1001F00042505109440F551F2FB7F894892F90E0B2
:10020000FC01EE0FFF1F8E0F9F1FFC01E35FFE4FEF
:10021000528341832FBFFF90EF90DF90CF900895DE
:10022000833081F028F4813099F08230A1F0089574
:100230008730A9F08830B9F08430D1F48091800003
:100240008F7D03C0809180008F7780938000089518
:1002500084B58F7702C084B58F7D84BD0895809169
:10026000B0008F7703C08091B0008F7D8093B00085
:1002700008951F93CF93DF93282F30E0F901E255C3
:10028000FF4F8491F901E656FF4FD491F901EA57E7
:10029000FF4FC491CC23C1F0162F81110E94100191
:1002A000EC2FF0E0EE0FFF1FE458FF4FA591B49143
:1002B0009FB7F894111104C08C91D095D82302C037
:1002C000EC91DE2BDC939FBFDF91CF911F910895BE
:1002D0003FB7F8948091090190910A01A0910B0118
:1002E000B0910C0126B5A89B05C02F3F19F00196CF
:1002F000A11DB11D3FBFBA2FA92F982F8827820FAC
:10030000911DA11DB11DBC01CD0142E0660F771FFB
:10031000881F991F4A95D1F708958F929F92AF92A7
:10032000BF92CF92DF92EF92FF926B017C010E940D
:1003300068014B015C01C114D104E104F104F1F046
:100340000E946801DC01CB0188199909AA09BB093F
:10035000883E9340A105B10570F321E0C21AD1088F
:10036000E108F10888EE880E83E0981EA11CB11CFC
:10037000C114D104E104F10419F7DDCFFF90EF902F
:10038000DF90CF90BF90AF909F908F9008951F9275
:100390000F920FB60F9211242F933F938F939F9339
:1003A000AF93BF938091050190910601A091070141
:1003B000B09108013091040123E0230F2D3720F480
:1003C0000196A11DB11D05C026E8230F0296A11DAF
:1003D000B11D209304018093050190930601A09321
:1003E0000701B09308018091090190910A01A09141
:1003F0000B01B0910C010196A11DB11D8093090163
:1004000090930A01A0930B01B0930C01BF91AF919F
:100410009F918F913F912F910F900FBE0F901F9042
:1004200018951F920F920FB60F9211242F933F939E
:100430004F935F936F937F938F939F93AF93BF93EC
:10044000EF93FF938091010187FF05C01092850013
:10045000109284001BC020910101022E000C330B6E
:100460008091000190E02817390784F48091010100
:10047000082E000C990BFC01EE0FFF1F8E0F9F1F23
:10048000FC01E35FFE4F808186FD15C08091010174
:100490008F5F8093010120910101022E000C330B2C
:1004A0008091000190E028173907C4F48091010180
:1004B0008C3064F113C080910101082E000C990B5F
:1004C000FC01EE0FFF1F8E0F9F1FFC01E35FFE4F2D
:1004D000808160E08F730E943901D8CF80918400C1
:1004E00090918500049680349C4918F480E49CE93E
:1004F00005C08091840090918500049690938900B6
:10050000809388008FEF809301013BC0209184008D
:100510003091850080910101082E000C990BFC019F
:10052000EE0FFF1F8E0F9F1FFC01E35FFE4F8181C7
:100530009281820F931F909389008093880080910D
:100540000101082E000C990BFC01EE0FFF1F8E0F0E
:100550009F1FFC01E35FFE4F808186FF12C08091E8
:100560000101082E000C990BFC01EE0FFF1F8E0FEE
:100570009F1FFC01E35FFE4F808161E08F730E944B
:100580003901FF91EF91BF91AF919F918F917F9131
:100590006F915F914F913F912F910F900FBE0F90F0
:1005A0001F901895789484B5826084BD84B581606D
:1005B00084BD85B5826085BD85B5816085BD80912E
:1005C0006E00816080936E001092810080918100A6
:1005D000826080938100809181008160809381009E
:1005E000809180008160809380008091B100846060
:1005F0008093B1008091B00081608093B0008091C1
:100600007A00846080937A0080917A00826080937F
:100610007A0080917A00816080937A0080917A00DC
:10062000806880937A001092C100C2EAD0E0FE0197
:1006300024910EE810E0F80184918823C9F090E03D
:10064000880F991FFC01E859FF4FA591B491FC0157
:10065000E458FF4F459154913FB7F8949C91822FF5
:10066000809598239C93FA019081892380833FBFD2
:10067000809131018C3008F068C0E3EAF0E0249109
:10068000EFE8F0E08491882399F090E0880F991FBB
:10069000FC01E859FF4FA591B491FC01E458FF4FCC
:1006A000859194918FB7F894EC91E22BEC938FBFE6
:1006B00080913101E82FF0E09F01220F331FE20FFC
:1006C000F31FE35FFE4F9081907C996090831092BE
:1006D0003201109233016CE00E948B04FCE08F9F8A
:1006E000B001112440E050E09B01240F351FF901B7
:1006F000EE0FFF1F2E0F3F1FF901E35FFE4F9081AA
:1007000096FD16C04F5F5F4F4C30510569F7811160
:100710000FC01092800082E08093810010928500CB
:1007200010928400B19A80916F00826080936F0074
:10073000E0913101F0E0CF01880F991FE80FF91F18
:10074000E35FFE4F80818064808396EBE92E90E02A
:10075000F92E20E0C22E20E0D22EF7018491FE0176
:10076000A490F801B490BB20A1F081110E94100167
:10077000EB2DF0E0EE0FFF1FEE58FF4FA591B49167
:100780008C918A2121E090E009F420E0A22EB92E7C
:1007900002C0A12CB12C61E070E080E090E00E94EA
:1007A0008D01AB28C9F4A0900201B0900301F8E2DA
:1007B000AF16B10454F1C5010E948C006FE070E0E7
:1007C00080E090E00E948D0181E0A81AB108B0920B
:1007D0000301A0920201E7CFA0900201B0900301B3
:1007E00091E5A916B1048CF4C5010E948C0065E066
:1007F00070E080E090E00E948D01EFEFAE1ABE0A3B
:10080000B0920301A0920201E7CFC114D10409F410
:10081000A4CF0E940000A1CF809100018C30A0F4F1
:1008200091E0980F909300018093310190E0FC01DA
:10083000EE0FFF1F8E0F9F1FFC01E35FFE4F88EB43
:100840009BE09283818308958FEF80933101089517
:10085000052E97FB1EF400940E943F0457FD07D01D
:100860000E945A0407FC03D04EF40C943F045095A8
:100870004095309521953F4F4F4F5F4F089590958C
:100880008095709561957F4F8F4F9F4F08950E947F
:100890007C04A59F900DB49F900DA49F800D911D89
:1008A00011240895B7FF0C9447040E944704821B4B
:1008B000930B0895A1E21A2EAA1BBB1BFD010DC0CC
:1008C000AA1FBB1FEE1FFF1FA217B307E407F50700
:1008D00020F0A21BB30BE40BF50B661F771F881FDC
:1008E000991F1A9469F760957095809590959B0172
:1008F000AC01BD01CF010895A29FB001B39FC0011B
:10090000A39F700D811D1124911DB29F700D811D3B
:100910001124911D0895991B79E004C0991F961721
:1009200008F0961B881F7A95C9F780950895EE0FF9
:0E093000FF1F0590F491E02D0994F894FFCF7D
:107E0000112484B714BE81FFF0D085E080938100F7
:107E100082E08093C00088E18093C10086E0809377
:107E2000C20080E18093C4008EE0C9D0259A86E02C
:107E300020E33CEF91E0309385002093840096BBD3
:107E4000B09BFECF1D9AA8958150A9F7CC24DD24C4
:107E500088248394B5E0AB2EA1E19A2EF3E0BF2EE7
:107E6000A2D0813461F49FD0082FAFD0023811F036
:107E7000013811F484E001C083E08DD089C08234E0
:107E800011F484E103C0853419F485E0A6D080C0E4
:107E9000853579F488D0E82EFF2485D0082F10E0AE
:107EA000102F00270E291F29000F111F8ED06801E7
:107EB0006FC0863521F484E090D080E0DECF843638
:107EC00009F040C070D06FD0082F6DD080E0C81688
:107ED00080E7D80618F4F601B7BEE895C0E0D1E017
:107EE00062D089930C17E1F7F0E0CF16F0E7DF06D8
:107EF00018F0F601B7BEE89568D007B600FCFDCFD4
:107F0000A601A0E0B1E02C9130E011968C91119780
:107F100090E0982F8827822B932B1296FA010C0160
:107F200087BEE89511244E5F5F4FF1E0A038BF0790
:107F300051F7F601A7BEE89507B600FCFDCF97BE46
:107F4000E89526C08437B1F42ED02DD0F82E2BD052
:107F50003CD0F601EF2C8F010F5F1F4F84911BD097
:107F6000EA94F801C1F70894C11CD11CFA94CF0C13
:107F7000D11C0EC0853739F428D08EE10CD085E9AC
:107F80000AD08FE07ACF813511F488E018D01DD067
:107F900080E101D065CF982F8091C00085FFFCCF94
:107FA0009093C60008958091C00087FFFCCF809118
:107FB000C00084FD01C0A8958091C6000895E0E648
:107FC000F0E098E1908380830895EDDF803219F02E
:107FD00088E0F5DFFFCF84E1DECF1F93182FE3DFCA
:107FE0001150E9F7F2DF1F91089580E0E8DFEE27F6
:047FF000FF270994CA
:027FFE00040479
:0400000300007E007B
:00000001FF
