:100000000C9462000C948A000C948A000C948A0070
:100010000C948A000C948A000C948A000C948A0038
:100020000C948A000C948A000C948A000C948A0028
:100030000C948A000C948A000C948A000C948A0018
:100040000C9430040C948A000C94A0040C947A0450
:100050000C948A000C948A000C948A000C948A00F8
:100060000C948A000C948A000000000023002600F3
:10007000290000000000240027002A0000000000E2
:10008000250028002B0004040404040404040202D4
:100090000202020203030303030301020408102007
:1000A0004080010204081020010204081020000012
:1000B0000008000201000003040700000000000027
:1000C0000000170511241FBECFEFD8E0DEBFCDBF63
:1000D00011E0A0E0B1E0E4E2F0E102C005900D9291
:1000E000A433B107D9F721E0A4E3B1E001C01D9228
:1000F000A23FB207E1F710E0C2E6D0E004C02197CA
:10010000FE010E940508C136D107C9F70E946005AB
:100110000C9410080C94000090E0FC01E255FF4F95
:100120002491FC01E656FF4F3491FC01EA57FF4F42
:10013000E491EE2309F43CC0222339F1233091F0FD
:1001400038F42130A9F0223001F584B58F7D12C03A
:10015000273091F02830A1F02430B9F4809180004C
:100160008F7D03C0809180008F77809380000DC0C9
:1001700084B58F7784BD09C08091B0008F7703C0AC
:100180008091B0008F7D8093B000F0E0EE0FFF1FF4
:10019000E458FF4FA591B4919FB7F894611104C042
:1001A0008C913095382302C0EC913E2B3C939FBF3D
:1001B0000895CF93DF9390E0FC01E656FF4F249122
:1001C000FC01EA57FF4F8491882361F190E0880F8A
:1001D000991FFC01EE58FF4FC591D491FC01E458E2
:1001E000FF4FA591B491611109C09FB7F894888120
:1001F000209582238883EC912E230BC0623061F41A
:100200009FB7F8948881322F309583238883EC91AF
:100210002E2B2C939FBF06C08FB7F894E8812E2B0E
:1002200028838FBFDF91CF9108951F93CF93DF93E2
:10023000182FEB0161E00E94D900209711F460E0D3
:1002400004C0CF3FD10539F461E0812FDF91CF9118
:100250001F910C948C00E12FF0E0E255FF4FE491E8
:10026000E330F9F048F4E130B9F0E230A1F584B5BB
:10027000806284BDC8BD34C0E730E9F0E83019F1D0
:10028000E43049F580918000806280938000D093B3
:100290008B00C0938A0024C084B5806884BDC7BD2C
:1002A0001FC080918000806880938000D093890077
:1002B000C093880015C08091B00080688093B00022
:1002C000C093B3000DC08091B00080628093B000F5
:1002D000C093B40005C0C038D1050CF0B5CFAFCF86
:1002E000DF91CF911F9108953FB7F8948091390124
:1002F00090913A01A0913B01B0913C0126B5A89B99
:1003000005C02F3F19F00196A11DB11D3FBFBA2FA7
:10031000A92F982F8827820F911DA11DB11DBC0107
:10032000CD0142E0660F771F881F991F4A95D1F7CC
:1003300008958F929F92AF92BF92CF92DF92EF92E9
:10034000FF926B017C010E9474014B015C01C1149E
:10035000D104E104F104F1F00E947401DC01CB014D
:1003600088199909AA09BB09883E9340A105B105DE
:1003700070F321E0C21AD108E108F10888EE880E76
:1003800083E0981EA11CB11CC114D104E104F10446
:1003900019F7DDCFFF90EF90DF90CF90BF90AF9037
:1003A0009F908F900895CF92DF92EF92FF920F93DC
:1003B0001F93CF93DF936C017A018B01C0E0D0E0F3
:1003C000CE15DF0581F0D8016D918D01D601ED913B
:1003D000FC910190F081E02DC6010995892B11F067
:1003E0002196EECF7E01C701DF91CF911F910F9132
:1003F000FF90EF90DF90CF900895FC01538D448DD6
:10040000252F30E0842F90E0821B930B541710F0BF
:10041000CF96089501970895FC01918D828D9817CC
:1004200061F0828DDF01A80FB11D5D968C91928DD8
:100430009F5F9F73928F90E008958FEF9FEF0895D5
:10044000FC01918D828D981731F0828DE80FF11D9E
:10045000858D90E008958FEF9FEF0895FC01918DB9
:10046000228D892F90E0805C9F4F821B91098F73B2
:10047000992708958DE391E00E942E0221E0892BB7
:1004800009F420E0822F0895FC01848DDF01A80F7C
:10049000B11DA35ABF4F2C91848D90E001968F73AC
:1004A0009927848FA689B7892C93A089B1898C91CB
:1004B000837080648C93938D848D981306C002881A
:1004C000F389E02D80818F7D80830895EF92FF92E4
:1004D0000F931F93CF93DF93EC0181E0888F9B8D67
:1004E0008C8D981305C0E889F989808185FD26C027
:1004F000F62E0B8D10E00F5F1F4F0F731127E02EAC
:100500008C8DE8120CC00FB607FCFACFE889F98988
:10051000808185FFF5CFCE010E944402F1CF8B8D03
:10052000FE01E80FF11DE35AFF4FF0829FB7F894E8
:100530000B8FEA89FB89808180620AC09FB7F8949B
:10054000EE89FF896083E889F989808183708064FE
:1005500080839FBF81E090E0DF91CF911F910F9149
:10056000FF90EF900895CF93DF93EC01888D88235F
:10057000C9F0EA89FB89808185FD05C0A889B98910
:100580008C9186FD0FC00FB607FCF5CF808185FFEB
:10059000F2CFA889B9898C9185FFEDCFCE010E9459
:1005A0004402E7CFDF91CF91089580E090E0892B5E
:1005B00029F00E943A0281110C9400000895CF9313
:1005C000DF93EC0160E08E810E948C0061E08E81FF
:1005D0000E948C0060E08E810E948C008BE891E08C
:1005E0000197F1F7DF91CF910895CF92DF92EF92CB
:1005F000FF920F931F93CF93DF936C017C0187E0F1
:10060000E80EF11CC0E0D0E0062F10E0B8010C2E7F
:1006100002C0759567950A94E2F76170F7018191C0
:100620007F010E948C002196C430D10579F7C60164
:10063000DF91CF911F910F91FF90EF90DF90CF90BE
:100640000C94DF02CF92DF92EF92FF920F931F93F1
:10065000CF93DF93EC01F62E642F8C810E948C00E7
:100660008D818F3F19F060E00E948C008F850F2DE7
:1006700010E084FF25C06E0187E0C80ED11CE12C7C
:10068000F12CB8010E2C02C0759567950A94E2F71B
:100690006170F60181916F010E948C00FFEFEF1AEB
:1006A000FF0A88E0E816F10461F7CE01DF91CF91EF
:1006B0001F910F91FF90EF90DF90CF900C94DF028D
:1006C000B80184E0759567958A95E1F7CE010E949F
:1006D000F5026F2DCE01DF91CF911F910F91FF9009
:1006E000EF90DF90CF900C94F50240E0682F8AEDF8
:1006F00091E00C94220381E00E9475038BE39FE15B
:100700000197F1F70895CF93DF93823028F090910D
:10071000E90198609093E9018093ED011092EE0158
:1007200080E48093EF0180E18093F00180E5809385
:10073000F10161E08091DE010E94D9008091DF012A
:100740008F3F19F061E00E94D90061E08091E001E3
:100750000E94D900CAEDD1E09E012A5D314080910E
:10076000E90184FD03C084E090E002C088E090E0ED
:100770002196281739072CF461E08E810E94D90058
:10078000EBCF8BE39DE00197F1F760E08091DE0114
:100790000E948C0060E08091E0010E948C008091BA
:1007A000DF018F3F19F060E00E948C008091E90129
:1007B00084FD20C063E08AED91E00E94F502CBE465
:1007C000D6E4CE010197F1F763E08AED91E00E9453
:1007D000F5022197F1F763E08AED91E00E94F502BE
:1007E00083E592E00197F1F762E08AED91E00E94E3
:1007F000F50215C080620E9475038BE496E40197B0
:10080000F1F78091E90180620E94750383E592E02F
:100810000197F1F78091E90180620E947503809150
:10082000E90180620E94750384E08093EA018CE014
:100830000E9475030E947B0382E08093EB0186E0B7
:10084000DF91CF910C94750341E00E94220381E077
:1008500090E00895089580E090E008950E940B08CC
:100860001F920F920FB60F9211242F933F938F93E5
:100870009F93AF93BF938091350190913601A091E2
:100880003701B09138013091340123E0230F2D3727
:1008900020F40196A11DB11D05C026E8230F029684
:1008A000A11DB11D20933401809335019093360131
:1008B000A0933701B09338018091390190913A01AA
:1008C000A0913B01B0913C010196A11DB11D809307
:1008D000390190933A01A0933B01B0933C01BF9141
:1008E000AF919F918F913F912F910F900FBE0F90DD
:1008F0001F9018951F920F920FB60F9211242F93ED
:100900003F934F935F936F937F938F939F93AF9397
:10091000BF93EF93FF938DE391E00E944402FF9118
:10092000EF91BF91AF919F918F917F916F915F9167
:100930004F913F912F910F900FBE0F901F901895E0
:100940001F920F920FB60F9211242F938F939F93A4
:10095000EF93FF93E0914D01F0914E018081E09182
:100960005301F091540182FD12C090818091560193
:100970008F5F8F7320915701821751F0E0915601DC
:10098000F0E0E35CFE4F958F8093560101C08081BB
:10099000FF91EF919F918F912F910F900FBE0F902C
:1009A0001F901895CF92DF92EF92FF920F931F93B3
:1009B000E82FF92F05C0015011092109310961F112
:1009C000908196239417B9F305C0015011092109AC
:1009D000310911F1908196239413F7CFC12CD12CBA
:1009E000E12CF12C0AC08FEFC81AD80AE80AF80ADD
:1009F0000C151D052E053F0579F08081862384178F
:100A000091F36C2D7D2D8E2D9F2D1F910F91FF90B9
:100A1000EF90DF90CF90089560E070E080E090E08C
:100A20001F910F91FF90EF90DF90CF900895EDE32D
:100A3000F1E01382128288EE93E0A0E0B0E08483BC
:100A40009583A683B78384E091E09183808385ECCE
:100A500090E09587848784EC90E09787868780EC88
:100A600090E0918B808B81EC90E0938B828B82EC79
:100A700090E0958B848B86EC90E0978B868B118E23
:100A8000128E138E148EEAEDF1E01382128286E14B
:100A900091E0918380838CE084838FEF85838BE06A
:100AA000868385E0878388E0808789E0818781E08D
:100AB0008287138614861586168617860C94830300
:100AC000789484B5826084BD84B5816084BD85B529
:100AD000826085BD85B5816085BD80916E00816035
:100AE00080936E00109281008091810082608093DB
:100AF00081008091810081608093810080918000DD
:100B00008160809380008091B10084608093B10007
:100B10008091B00081608093B00080917A00846001
:100B200080937A0080917A00826080937A0080912D
:100B30007A00816080937A0080917A008068809347
:100B40007A001092C1000E947B0382E00E9483031E
:100B500047E050E06EE171E08AED91E00E94D30140
:100B600061E087E00E94D90060E084E00E94D90043
:100B700061E082E00E94D90061E083E00E94D90038
:100B800061E086E00E94D900E0914D01F0914E01B4
:100B900082E08083E0914901F0914A011082E09166
:100BA0004B01F0914C018FEC808310925501E09144
:100BB0005101F091520186E08083E0914F01F09164
:100BC0005001808180618083E0914F01F09150015C
:100BD000808188608083E0914F01F0915001808195
:100BE00080688083E0914F01F091500180818F7D7A
:100BF0008083C3E0D0E093E2E92EF12C2EE9C22EEF
:100C000020E0D22E3AE8A32E30E0B32E60E087E059
:100C10000E948C00CE010197F1F761E087E00E940D
:100C20008C00C7010197F1F760E087E00E948C001B
:100C3000F6016491F5018491E82FF0E0EE0FFF1FBB
:100C4000E859FF4F8591949100E412E42FE030E0E1
:100C5000462F0E94D204611571058105910549F066
:100C6000DC01CB010196A11DB11DBC01CD019F701E
:100C700003C060E070E0CB010E940C0726E933E47A
:100C80004BE05DE30E94700720E030E040E05FE36E
:100C90000E9470070E94D406663071050CF06FC088
:100CA00061E08DE00E948C0068EE73E080E090E0EF
:100CB0000E94990161E082E00E948C0062E370E092
:100CC00083E00E94150160E070E086E00E9415015B
:100CD00060ED77E080E090E00E94990160E070E0D4
:100CE00083E00E94150160E070E086E00E9415013B
:100CF00068EE73E080E090E00E94990168EE73E096
:100D000080E090E00E94990168EE73E080E090E05E
:100D10000E94990168EB7BE080E090E00E949901DD
:100D20000E947B03E091ED01E23010F4E15001C03C
:100D3000E1E0F0E0E652FE4F848980680E9475038E
:100D40004CE050E066E271E08AED91E00E94D30150
:100D500068EE73E080E090E00E94990160E070E04E
:100D600083E00E94150162E370E086E00E941501B5
:100D700068EB7BE080E090E00E94990112C060E0A7
:100D80008DE00E948C0060E082E00E948C0062E3B3
:100D900070E083E00E94150160E070E086E00E9450
:100DA00015010E94D50232CF0E94DB066894B11172
:100DB0000C946A0708950E944F0788F09F5798F097
:100DC000B92F9927B751B0F0E1F0660F771F881F50
:100DD000991F1AF0BA95C9F714C0B13091F00E946A
:100DE0006907B1E008950C946907672F782F882769
:100DF000B85F39F0B93FCCF3869577956795B39591
:100E0000D9F73EF490958095709561957F4F8F4FFF
:100E10009F4F0895E89409C097FB3EF49095809504
:100E2000709561957F4F8F4F9F4F9923A9F0F92FB0
:100E300096E9BB279395F695879577956795B7952E
:100E4000F111F8CFFAF4BB0F11F460FF1BC06F5F14
:100E50007F4F8F4F9F4F16C0882311F096E911C026
:100E6000772321F09EE8872F762F05C0662371F047
:100E700096E8862F70E060E02AF09A95660F771F5B
:100E8000881FDAF7880F9695879597F9089557FD8B
:100E90009058440F551F59F05F3F71F04795880FE8
:100EA00097FB991F61F09F3F79F08795089512167F
:100EB00013061406551FF2CF4695F1DF08C016162B
:100EC00017061806991FF1CF8695710561050894DC
:100ED0000895E894BB2766277727CB0197F90895F3
:100EE0000E9483070C94F4070E94E60738F00E94E2
:100EF000ED0720F0952311F00C94DD070C94E30727
:100F000011240C946A070E94470770F3959FC1F360
:100F1000950F50E0551F629FF001729FBB27F00DA7
:100F2000B11D639FAA27F00DB11DAA1F649F6627FC
:100F3000B00DA11D661F829F2227B00DA11D621F4B
:100F4000739FB00DA11D621F839FA00D611D221F05
:100F5000749F3327A00D611D231F849F600D211DE9
:100F6000822F762F6A2F11249F5750409AF0F1F06C
:100F700088234AF0EE0FFF1FBB1F661F771F881FD5
:100F800091505040A9F79E3F510580F00C94DD0729
:100F90000C946A075F3FE4F3983ED4F38695779507
:100FA0006795B795F795E7959F5FC1F7FE2B880F7B
:100FB000911D9695879597F9089597F99F6780E811
:100FC00070E060E008959FEF80EC089500240A949B
:100FD0001616170618060906089500240A94121614
:100FE0001306140605060895092E0394000C11F447
:100FF000882352F0BB0F40F4BF2B11F460FF04C0F4
:101000006F5F7F4F8F4F9F4F0895EE0FFF1F05902B
:10101000F491E02D099481E090E0F8940C9410088C
:04102000F894FFCF72
:10102400000000006602D301FD01B3022E020C028F
:101034002002000000002404D3012B042A04574595
:101044004C434F4D4500506C6561736520456E748B
:0410540065720000C1
:00000001FF
